:100000000C942A000C943F000C943F000C943F0089
:100010000C943F000C943F000C943F000C943F0064
:100020000C943F000C943F000C943F000C943F0054
:100030000C943F000C943F000C943F000C943F0044
:100040000C943F000C943F000C943F000C943F0034
:100050000C943F0011241FBECFE5D8E0DEBFCDBF1A
:1000600012E0A0E6B0E0E0E2FAE002C005900D92F6
:10007000AA30B107D9F70E947F020C940E050C94A8
:1000800000008FE081BD08959C0182E083BF8EEC6B
:1000900008C082BF98B7916098BFA89508B600FEC7
:1000A000FDCF21503109A8F713BE0895662311F042
:1000B000C09A01C0C098C19882BB8FEF81BBC29A21
:1000C000000000000000C2980895C098C19A11BABB
:1000D00090B3C29A00000000000011BA90B3C29819
:1000E00099239CF30E9456000895B89AB99ABA9A37
:1000F00080E190E00E94440060E080E30E945600AE
:1001000085E090E00E94440060E080E30E94560099
:1001100081E090E00E94440060E08CE30E94650072
:1001200060E08CE00E94650060E086E00E9465006F
:1001300060E081E00E946500089560E081E00E9437
:1001400065000895CF93C62F98E2899FC00D1124B2
:1001500060E082E00E946500CC2331F060E084E141
:100160000E946500C150D1F7CF910895CF93DF93DE
:10017000EC012196FC018081882331F061E00E942E
:10018000650089918111FACFDF91CF9108954F9247
:100190005F926F927F928F929F92AF92BF92CF9217
:1001A000DF92EF92FF92CF93DF93EB01BC01990FA7
:1001B000880B990B0E9415044B015C01BE01DD0FF9
:1001C000880B990B0E94150420E030E04AE754E4C4
:1001D0000E947203A50194010E94A1040E94E403FD
:1001E0006B017C01A501940160E070E080E89FE371
:1001F0000E94720320E030E44CE956E40E94A1041E
:100200004B015C0120E030E040E05FE30E94A1048C
:100210002B013C019B01AC01C501B4010E94050307
:100220004B015C01C114D104E104F104E9F0C0E028
:10023000D0E0D89AC301B2010E94E403CB010E942E
:100240004400D898C501B4010E94E403CB010E9488
:1002500044002196CE010D2E000CAA0BBB0B8C1571
:100260009D05AE05BF0528F382E390E00E9444009F
:10027000DF91CF91FF90EF90DF90CF90BF90AF9044
:100280009F908F907F906F905F904F9008950F9305
:100290001F93CF93DF93CDB7DEB761970FB6F89476
:1002A000DEBF0FBECDBF8C010E949D0060E080E0EC
:1002B0000E94A2000115110551F48EE0E4EDF1E079
:1002C000DE01119601900D928A95E1F723C001306D
:1002D000110551F480E1E2EEF1E0DE0111960190AA
:1002E0000D928A95E1F716C00230110551F48AE0AB
:1002F000E2EFF1E0DE01119601900D928A95E1F7AF
:1003000009C089E0ECEFF1E0DE01119601900D9259
:100310008A95E1F7CE0101960E94B60061960FB66C
:10032000F894DEBF0FBECDBFDF91CF911F910F912B
:100330000895CF93DF9314BA15BA44B321E030E0A7
:10034000F90102C0EE0FFF1F8A95E2F7CF014E2B95
:1003500044BB95B38095892385BB84B3EB01249678
:100360000C2E02C0220F331F0A94E2F7922F9095B1
:10037000892384BB85B3282B25BB81E090E00E94B4
:10038000440023B330E002C035952795CA95E2F7C3
:1003900081E090E020FF02C080E090E0DF91CF910B
:1003A00008950F931F93CF93DF9300E010E01CC0DC
:1003B000BE01C8010E949901009769F08CE291E0AA
:1003C0000E944400000F111F000F111FC00FD11F0A
:1003D000CE0101960CC02196C430D10549F70F5FBC
:1003E0001F4F0430110519F0C0E0D0E0E1CFDF91DC
:1003F000CF911F910F9108958130910579F182304D
:10040000910579F18330910579F18430910579F185
:100410008530910579F18630910579F18730910524
:1004200079F18830910579F18930910579F18A3037
:10043000910579F18B30910579F18C30910579F145
:100440008D30910579F18E30910579F18F309105DC
:1004500079F1409781F181E190E0089581E090E0A9
:10046000089582E090E0089583E090E008958AE0A6
:1004700090E0089584E090E0089585E090E008958C
:1004800086E090E008958BE090E0089587E090E0AA
:10049000089588E090E0089589E090E008958CE068
:1004A00090E008958DE090E0089580E090E0089558
:1004B0008FE090E0089580E190E00895EF92FF9240
:1004C0000F931F93CF93DF93161617068CF47B01BF
:1004D000C82FD92F00E010E06A817B818881998143
:1004E0000E94C7000F5F1F4F2496E016F106A1F788
:1004F000DF91CF911F910F91FF90EF900895CF93CF
:10050000DF93CDB7DEB7C457D1400FB6F894DEBF46
:100510000FBECDBFD09A80E884BF84BF0E94750013
:100520000E94410088EAE0E6F0E0DE0111960190C9
:100530000D928A95E1F788E6E8E0F1E0DE01A75543
:10054000BF4F01900D928A95E1F784E6E0E7F1E074
:10055000DE01AF5EBE4F01900D928A95E1F780E01B
:1005600090E00E94470100E010E0E12CF12C02C075
:100570000E2D1F2D0E94D1010E94FC018A30910591
:1005800039F481E090E00E94470101E010E0F2CFF1
:100590008B30910539F482E090E00E94470102E03F
:1005A00010E0E8CF8C30910539F483E090E00E94B0
:1005B000470103E010E0DECF0D97E1F601301105B1
:1005C00049F461E370E0CE0101960E945E020E2DB7
:1005D0001F2DD0CF0230110551F46AE170E0CE0139
:1005E00087559F4F0E945E020E2D1F2DC3CF0330F3
:1005F000110509F0BDCF69E170E0CE018F5E9E4F1D
:100600000E945E020E2D1F2DB5CF5058BB27AA2782
:100610000E941D030C9467040E94590438F00E9444
:10062000600420F039F49F3F19F426F40C9456042A
:100630000EF4E095E7FB0C945004E92F0E94780437
:1006400058F3BA17620773078407950720F079F407
:10065000A6F50C949A040EF4E0950B2EBA2FA02D5B
:100660000B01B90190010C01CA01A0011124FF275F
:10067000591B99F0593F50F4503E68F11A16F0405A
:10068000A22F232F342F4427585FF3CF4695379559
:100690002795A795F0405395C9F77EF41F16BA0B1E
:1006A000620B730B840BBAF09150A1F0FF0FBB1FCC
:1006B000661F771F881FC2F70EC0BA0F621F731F15
:1006C000841F48F4879577956795B795F7959E3F72
:1006D00008F0B0CF9395880F08F09927EE0F979503
:1006E000879508950E9486030C9467040E94600415
:1006F00058F00E94590440F029F45F3F29F00C940F
:10070000500451110C949B040C9456040E947804DC
:1007100068F39923B1F3552391F3951B550BBB2730
:10072000AA2762177307840738F09F5F5F4F220F75
:10073000331F441FAA1FA9F335D00E2E3AF0E0E86C
:1007400032D091505040E695001CCAF72BD0FE2FB6
:1007500029D0660F771F881FBB1F2617370748074A
:10076000AB07B0E809F0BB0B802DBF01FF27935802
:100770005F4F3AF09E3F510578F00C9450040C9472
:100780009B045F3FE4F3983ED4F386957795679595
:10079000B795F7959F5FC9F7880F911D9695879537
:1007A00097F90895E1E0660F771F881FBB1F621756
:1007B00073078407BA0720F0621B730B840BBA0B14
:1007C000EE1F88F7E09508950E94800488F09F57F7
:1007D00098F0B92F9927B751B0F0E1F0660F771F65
:1007E000881F991F1AF0BA95C9F714C0B13091F05B
:1007F0000E949A04B1E008950C949A04672F782F10
:100800008827B85F39F0B93FCCF38695779567951F
:10081000B395D9F73EF490958095709561957F4F8B
:100820008F4F9F4F0895E89409C097FB3EF4909531
:100830008095709561957F4F8F4F9F4F9923A9F0B9
:10084000F92F96E9BB279395F69587957795679548
:10085000B795F111F8CFFAF4BB0F11F460FF1BC08C
:100860006F5F7F4F8F4F9F4F16C0882311F096E91F
:1008700011C0772321F09EE8872F762F05C06623CD
:1008800071F096E8862F70E060E02AF09A95660F86
:10089000771F881FDAF7880F9695879597F908953F
:1008A00097F99F6780E870E060E008959FEF80EC23
:1008B000089500240A9416161706180609060895C6
:1008C00000240A9412161306140605060895092E2C
:1008D0000394000C11F4882352F0BB0F40F4BF2B9B
:1008E00011F460FF04C06F5F7F4F8F4F9F4F0895DB
:1008F00057FD9058440F551F59F05F3F71F04795D1
:10090000880F97FB991F61F09F3F79F087950895B5
:10091000121613061406551FF2CF4695F1DF08C0D4
:10092000161617061806991FF1CF869571056105F1
:1009300008940895E894BB2766277727CB0197F999
:1009400008950E94B4040C9467040E94590438F07E
:100950000E94600420F0952311F00C9450040C9434
:10096000560411240C949B040E94780470F3959F04
:10097000C1F3950F50E0551F629FF001729FBB2796
:10098000F00DB11D639FAA27F00DB11DAA1F649F32
:100990006627B00DA11D661F829F2227B00DA11DE5
:1009A000621F739FB00DA11D621F839FA00D611D6B
:1009B000221F749F3327A00D611D231F849F600D8C
:1009C000211D822F762F6A2F11249F5750409AF0B5
:1009D000F1F088234AF0EE0FFF1FBB1F661F771F41
:1009E000881F91505040A9F79E3F510580F00C940C
:1009F00050040C949B045F3FE4F3983ED4F3869537
:100A000077956795B795F795E7959F5FC1F7FE2BAB
:100A1000880F911D9695879597F90895F894FFCFC3
:100A20000601F4010601F4018801F4018801F401D2
:100A3000B801F401B801F4018801E8035D01F40193
:100A40005D01F4014A01F4014A01F4012601F401B7
:100A50002601F4010601E8038801F4018801F4018C
:100A60005D01F4015D01F4014A01F4014A01F40160
:100A70002601E8038801F4018801F4015D01F40115
:100A80005D01F4014A01F4014A01F4012601E80381
:100A90000601F4010601F4018801F4018801F40162
:100AA000B801F401B801F4018801E8035D01F40123
:100AB0005D01F4014A01F4014A01F4012601F40147
:100AC0002601F4010601E803A500F4019300F401F6
:100AD0008300F4019300F401A500F401A500F401E2
:100AE000A500E8039300F4019300F4019300E803E8
:100AF000A500F401C400F401C400E803A500F4015A
:100B00009300F4018300F4019300F401A500F401C3
:100B1000A500F401A500F401A500F4019300F4017F
:100B20009300F401A500F4019300F4018300E803AD
:100B3000B801F401B801F401EE01F401B801F401C7
:100B40002601F4011501E803B801F401B801F4012C
:100B5000EE01F401B801F4014A01F4012601E803B1
:100B6000B801F401B801F4014A01F4017201F40181
:100B70002601F4011501F401EE01E8038801F401F6
:100B80008801F4017201F4012601F4014A01F40123
:100B90002601E80353656C656374206120736F6EF2
:100BA00067005477696E6B6C65205477696E6B6C67
:100BB00065004D617279204C616D620062697274EA
:0A0BC0006864617900253032690095
:00000001FF
